:100000000C9434000C943E000C943E000C943E0082
:100010000C943E000C943E000C943E000C943E0068
:100020000C943E000C943E000C943E000C943E0058
:100030000C943E000C943E000C943E000C943E0048
:100040000C943E000C943E000C943E000C943E0038
:100050000C943E000C943E000C943E000C943E0028
:100060000C943E000C943E0011241FBECFEFD8E04C
:10007000DEBFCDBF0E945A000C9462000C940000B9
:10008000219A089585B1856085B92FEF83ED90E3BE
:10009000215080409040E1F700C0000008952D9865
:1000A0002FEF83ED90E3215080409040E1F700C0B6
:1000B00000000895259A0E9440000E9442000E947C
:0800C0004F00F9CFF894FFCFC7
:00000001FF
